:020000040800F2
:1000000020050020050100089B1B000811110008B5
:10001000991B000871010008E91E0008000000009B
:10002000000000000000000000000000AD1D0008FE
:100030009101000800000000011C00080D1E0008CE
:100040001F0100081F0100081F0100081F01000810
:100050001F0100081F0100081F0100081F01000800
:100060001F0100081F0100081F0100081F010008F0
:1000700075010008810100088D0100088F0100084A
:100080001F0100081F0100081F0100081F010008D0
:100090001F0100081F0100081F010008B10100082E
:1000A0001F0100081F0100081F0100081F010008B0
:1000B0001F0100081F0100081F0100081F010008A0
:1000C0001F0100081F0100081F010008B91C0008DB
:1000D0001F010008BB1E00081F0100081F010008C7
:1000E000950100081F0100081F010008DFF810D06B
:1000F00000F02CF8004800479F1F0008AFF3008075
:10010000200500200648804706480047FEE7FEE736
:10011000FEE7FEE7FEE7FEE7FEE7FEE7FEE7FEE7B7
:10012000B91E0008ED000008D2B201E000F8012B72
:10013000491EFBD270470022F6E710B513460A4667
:1001400004461946FFF7F0FF204610BD064C074D48
:1001500006E0E06840F0010394E807009847103497
:10016000AC42F6D3FFF7C6FF142000083420000885
:10017000FEE70000014800F099B800008800002068
:10018000014800F093B80000CC0000207047704791
:100190007047000010B54FF40054204601F0BEF83F
:1001A000002801D00148046010BD00001404014083
:1001B00010B5202001F0B2F8002802D0014920201B
:1001C000086010BD1404014072B6FEE7002200F082
:1001D00001B8000030B50E4B054601205C7A012CB9
:1001E00015D8587A00241C54587A03EB80004560D7
:1001F0005D7A03F108002A54587A421C5A72303052
:1002000008703A2048702F208870CC70002030BDD4
:100210001001002010B590F821100024022903D00D
:100220000421816301243DE001680A6822F00E0286
:100230000A6001680A6822F001020A601A4A01682D
:10024000914201D1012121E0174A1432914201D19A
:1002500010211BE0144A2832914201D1891515E082
:10026000114A3C32914201D189140FE00E4A5032BA
:10027000914202D14FF4803108E00B4A643291423E
:1002800002D14FF4801101E04FF08071064A083A24
:100290005160012180F82110002180F82010416B6D
:1002A00001B18847204610BD080002402DE9F05FEB
:1002B000C16B0C6801680B68D0F840C0042202FAD8
:1002C0000CF2494DDFF824A1494E4A4FDFF828B11E
:1002D000DFF828E122422CD05A072AD50A68920674
:1002E00003D40A6822F004020A600168A94201D11D
:1002F000042219E0514501D1402215E0B14202D15A
:100300004FF4806210E0B94202D14FF480420BE01A
:10031000594502D14FF4802206E0714502D14FF4D5
:10032000800201E04FF080622F4908394A60C16ABB
:100330003BE04FF0020808FA0CF818EA040F4FF0FF
:1003400000094FF0010235D05FEA837832D50B689F
:100350009B0605D40B6823F00A030B6080F821206C
:100360000168A94201D1022219E0514501D12022A0
:1003700015E0B14202D14FF4007210E0B94202D14F
:100380004FF400520BE0594502D14FF4003206E021
:10039000714502D14FF4001201E04FF00072124992
:1003A00008394A6080F82090816A00291AD0BDE897
:1003B000F05F0847082505FA0CF5254212D01B0707
:1003C00010D50B6823F00E030B6090F84010C36B40
:1003D00002FA01F15960826380F8212080F82090B0
:1003E000016BE2E7BDE8F09F080002401C000240FC
:1003F0003000024044000240580002406C000240BD
:1004000070B504007ED04A49206888421BD0484914
:100410001431884217D046492831884213D04449C4
:100420003C3188420FD04249503188420BD040497C
:100430006431884207D03E497831884203D09A21FE
:100440003CA001F0ABFD606840B1102806D0B0F5CB
:10045000804F03D09B2137A001F0A0FDA068402869
:1004600004D018B19C2133A001F098FDE0688028E9
:1004700004D018B19D212FA001F090FD206948B152
:10048000B0F5807F06D0B0F5007F03D09E2129A073
:1004900001F084FD606948B1B0F5806F06D0B0F519
:1004A000006F03D09F2123A001F078FDA06928B13F
:1004B000202803D0A0211FA001F070FDE06960B1E9
:1004C000B0F5805F09D0B0F5005F06D0B0F5405FB1
:1004D00003D0A12117A001F061FD04CC1448142120
:1004E00040421044B0FBF1F08000E063104808384F
:1004F000A06302206077116843F6F0708143D4E96D
:10050000000300E012E01843D4E902352B431843FE
:100510002369184363691843A369184308431060AB
:100520000020606301216177207770BD012070BDDC
:10053000080002402E2E2F447269766572732F5385
:10054000544D3332463178785F48414C5F4472698C
:100550007665722F5372632F73746D333266317800
:10056000785F68616C5F646D612E63002DE9F84F00
:100570000026DFF89CB20D460446B14658450FD020
:10058000A44884420CD0A448844209D0A3488442A1
:1005900006D0A348844203D0BD21A2A001F0FEFCF6
:1005A00028680104090C01D0000C03D0BE219DA0D5
:1005B00001F0F4FC6868DFF8A8A200281ED001282A
:1005C000FCD01128FAD00228F8D01228F6D05045D5
:1005D000F4D0A4498842F1D0A3498842EED0A3497F
:1005E0008842EBD0A2498842E8D0A2498842E5D0AF
:1005F0000328E3D0BF218BA001F0D0FC00E1012053
:1006000000FA06F807EA080747456FD15C450FD0A6
:10061000804884420CD08048844209D07F4884427C
:1006200006D07F48844203D0CD217EA001F0B6FCE5
:100630006868A0EB0A02504559D00EDC032875D03B
:1006400006DC002853D0012819D0022869D131E0F6
:10065000112821D0122864D13AE0B2F5881F46D083
:1006600006DCB2F5803F42D0B2F5801F59D13EE0A2
:10067000B2F5001F3BD0B2F5041F52D137E0E86855
:10068000022807D0012805D0032803D0D52165A072
:1006900001F084FCE8683EE0E868022807D0012801
:1006A00005D0032803D0DC215EA001F077FCE868C8
:1006B000001D30E0E868022807D0012805D0032893
:1006C00003D0E32157A001F069FCE868083022E07C
:1006D000E868022807D0012805D0032803D0EA21C2
:1006E00050A001F05BFCE8680C3014E087E0A868DB
:1006F00080B1012811D0022807D0F72149A001F0CC
:100700004DFCA86830B1012807D04FF00809C4F8A3
:10071000148006E00420814603E04FF00809C4F885
:100720001080FF2F05D8214605E0FFE74FF00000BD
:10073000F1E704F104014FEA860001D9A0F120009D
:100740000B684FF00F0202FA00FC23EA0C0309FACF
:1007500000FC43EA0C030B606868C0004FD54648B4
:10076000816941F001018161806926F0030100F097
:100770000100009041480B189868B1074FEA117CBE
:1007800002FA0CF290435C4501D100210FE02149AF
:100790008C4201D101210AE01F498C4201D1022182
:1007A00005E01E498C4201D1032100E0042101FA39
:1007B0000CF1014399606868C0033148016801D5B4
:1007C000394300E0B9430160686880032D4801683F
:1007D00001D5394300E0B94301606868C0022A4886
:1007E000016801D5394300E0B943016068688002BF
:1007F0002648016801D5394300E0B9430160761C01
:100800002F6837FA06F07FF4FAAEBDE8F88F0000E3
:1008100000080140000C014000100140001401409C
:10082000001801402E2E2F447269766572732F5383
:10083000544D3332463178785F48414C5F44726999
:100840007665722F5372632F73746D33326631780D
:10085000785F68616C5F6770696F2E6300000000ED
:1008600000001110000021100000311000001210D3
:100870000000221000003210001002400000014071
:100880000004014004040140080401400C0401403C
:1008900001488068704700002000002002488168FD
:1008A000027811448160704720000020074810B58D
:1008B000016841F010010160032000F0C9F8002038
:1008C00000F006F800F024F8002010BD00200240DF
:1008D00070B50D4D04464FF47A712878B1FBF0F0F5
:1008E0000A490968B1FBF0F000F0FEFB48B9102C92
:1008F00007D200222146501E00F05AF800206C60FA
:1009000070BD012070BD0000200000202C000020E0
:100910000C4808B5816941F001018161816901F0EC
:1009200001010091C16941F08051C161C06900F0CD
:10093000805000900448416821F0E06141F000716E
:10094000416008BD001002400000014010B50400E5
:1009500003D5BE2107A001F021FB002C09DB04F028
:100960001F01012088406109890001F1E021C1F8DF
:10097000000110BD2E2E2F447269766572732F53BD
:10098000544D3332463178785F48414C5F44726948
:100990007665722F5372632F73746D3332663178BC
:1009A000785F68616C5F636F727465782E630000B6
:1009B00070B515460C460646102A03D3AA2114A08A
:1009C00001F0ECFA102C03D3AB2111A001F0E6FAF0
:1009D0001E480068C0F30223C3F107022046042A20
:1009E00000D90422191D072901D2002300E0DB1ED3
:1009F000012404FA02F1491E014099409C40641E02
:100A00002C4021433046BDE8704001F0A8BA0000F8
:100A10002E2E2F447269766572732F53544D3332E4
:100A2000463178785F48414C5F4472697665722F31
:100A30005372632F73746D3332663178785F6861F7
:100A40006C5F636F727465782E6300000CED00E0DC
:100A500010B5044607280BD0062C09D0052C07D06A
:100A6000042C05D0032C03D0922108A001F096FAA3
:100A7000154904F0070208684FF6FF03184040EAE2
:100A80000220124A1043086010BD00002E2E2F4491
:100A90007269766572732F53544D333246317878CC
:100AA0005F48414C5F4472697665722F5372632FC1
:100AB00073746D3332663178785F68616C5F636F31
:100AC000727465782E6300000CED00E00000FA05FA
:100AD0007047000038B50446006842688168C94321
:100AE0004B0606D5CB0704D1D3435B0601D4216C5A
:100AF00005E08B0708D4D3431B0605D4616C01B015
:100B00002046BDE8304008478B0601D54B0646D449
:100B1000D3439B0643D44B060AD494F85130032B9D
:100B20003ED0636D43F004036365C368836800933C
:100B3000890609D4616D41F0010161658168009108
:100B4000016821F040010160606D002827D0206815
:100B5000416821F0E0014160012084F851009007D4
:100B600022D02068416821F003014160104DE06C03
:100B700040B14563E06CFFF74DFB18B1606D40F08C
:100B800040006065A06C002809D04563A06CFFF7A9
:100B900041FB002803D0606D40F04000606538BD27
:100BA000C1688068009038BD2046FFF791FF38BDCE
:100BB000C51C000870B504007ED07B4920688842BF
:100BC00007D07A49884204D04FF4AC7178A001F084
:100BD000E5F960684FF4827630B1B04204D040F25B
:100BE000591173A001F0DAF9A06850B1B0F5806F27
:100BF00007D0B0F5004F04D04FF4AD716CA001F0F8
:100C0000CDF9E068B0F5006F05D020B140F25B117E
:100C100067A001F0C3F9A069B0F5007F08D038B132
:100C2000B0F5802F04D04FF4AE7161A001F0B6F999
:100C3000E06990B1082810D010280ED018280CD0E8
:100C400020280AD0282808D0302806D0382804D0F8
:100C500040F25D1156A001F0A1F9206A30B1802860
:100C600004D04FF4AF7152A001F098F9606A0025EA
:100C700038B340F261114EA001F090F9606A00B300
:100C8000E06990B1082810D010280ED018280CD098
:100C900020280AD0282808D0302806D0382804D0A8
:100CA00040F2731142A001F079F925616561A562F6
:100CB00094F85100002800E001E030D034E0012039
:100CC00070BD206930B1022804D04FF4B27138A051
:100CD00001F064F9606930B1012804D040F2651177
:100CE00033A001F05BF96068B04216D1E0690028DA
:100CF000DDD00828DBD01028D9D01828D7D020285C
:100D0000D5D02828D3D03028D1D03828CFD040F221
:100D1000691127A001F042F9C9E7E561C7E784F846
:100D20005050204600F060F8022084F851002068FE
:100D3000016821F040010160A088218900F48270DF
:100D400001F404410843A18901F400610843217CB6
:100D500001F002010843217D01F001010843218BCC
:100D600001F400710843217F01F03801084394F831
:100D7000201001F080010843218D01F40051084347
:100D800021680860A069042101EA104021684860D8
:100D90002068C16921F40061C1616565012084F8A2
:100DA0005100002070BD00000030014000380040BC
:100DB0002E2E2F447269766572732F53544D333241
:100DC000463178785F48414C5F4472697665722F8E
:100DD0005372632F73746D3332663178785F686154
:100DE0006C5F7370692E6300F0B585B00024064611
:100DF000009401940294039400682C49884253D1D2
:100E00002B48816941F480518161816901F48051ED
:100E10000491816941F0040181618069254D00F0F0
:100E200004000490A0200090022001900320039071
:100E300069462846FFF79AFB4020CDE90004694641
:100E400028460294FFF792FB1C4D1B488027C5E9FA
:100E50000004C5E902472C616C61AC612846EC6175
:100E6000FFF7CEFA08B1FFF7AFF9F5646E62134DE4
:100E700011484435143001C5102091C50F4845F87C
:100E8000104944306C61AC61EC61FFF7B9FA08B10C
:100E9000FFF79AF9B5640022114623206E62FFF72E
:100EA00087FD2320FFF752FD05B0F0BD0030014063
:100EB00000100240000801401C0002408800002091
:100EC0002DE9F84F04460A9E80681D4692468B46DF
:100ED0004FF00109002720B140F29E4174A001F0BB
:100EE0005DF894F8500001280ED0012084F85000DD
:100EF000FFF7CEFC804694F85100616801280CD0C1
:100F0000B1F5827F07D102E00220BDE8F88FA16829
:100F100009B9042801D00227C2E0BBF1000F27D095
:100F2000BAF1000F24D01DB394F85100042802D068
:100F3000052084F8510000206065C4F838A0E587DA
:100F4000A587C4F830B0E586A58620646064206873
:100F50000168490603D4016841F040010160E0687E
:100F6000B0F5006F606805D0F0B3012D46D07FE08A
:100F7000012795E008B1012D39D1206B2168008847
:100F8000C860206B801C2063E08E401EE0862EE04F
:100F90002068816889070FD5E18E69B1B9F1010F29
:100FA0000AD1216B0988C160206B801C2063E08E10
:100FB000401EE0864FF0000920688168C9070CD008
:100FC000E18F51B1C068A16B0880A06B801CA06349
:100FD000E08F401EE0874FF00109FFF759FCA0EBBE
:100FE0000800B04203D300E008E0701C50D1E08E4E
:100FF0000028CDD1E08F0028CAD13FE0206B2168C6
:1010000000780873206B401C2063E08E401EE08651
:101010002EE02068816889070FD5E18E69B1B9F1AA
:10102000010F0AD1216B09780173206B401C2063EA
:10103000E08E401EE0864FF0000920688168C907F5
:101040000CD0E18F51B1C068A16B0870A06B401C3F
:10105000A063E08F401EE0874FF00109FFF718FC06
:10106000A0EB0800B04202D3701C01D010E07EB1AA
:10107000E08E0028CDD1E08F0028CAD1424631460B
:10108000204600F027FE28B101272020606507E0F8
:10109000032705E0A06818B92068C168806800903F
:1010A000012084F85100002084F8500038462CE7D5
:1010B0002E2E2F447269766572732F53544D33323E
:1010C000463178785F48414C5F4472697665722F8B
:1010D0005372632F73746D3332663178785F686151
:1010E0006C5F7370692E630010B5401EB0F1807F95
:1010F00001D3012010BD4FF0E02460610F21601783
:1011000000F02DFF0020A06107202061002010BD0D
:10111000FEE70000044908B58A6902438A618969CB
:101120000140009108BD000000100240044908B5CC
:101130008A6902438A6189690140009108BD000003
:1011400000100240044B194411F8011C435823F4C9
:101150004053134343507047F41F0008054B10B52C
:10116000194411F8011C435844F21004A3431343DB
:10117000435010BDF41F0008044B194411F8011C22
:10118000435823F08003134343507047F41F000873
:10119000044B194411F8011C435823F440631343D2
:1011A00043507047F41F0008044B194411F8011C08
:1011B000435823F02003134343507047F41F0008A3
:1011C000044B194411F8011C435823F04003134306
:1011D00043507047F41F0008044B194411F8011CD8
:1011E000435823F44073134343507047F41F0008DF
:1011F0002DE9F041044600680027C00C03D06E21A1
:1012000037A000F0CBFE207928B1012803D06F2150
:1012100033A000F0C3FE607938B1012805D0022860
:1012200003D070212EA000F0B9FE3B4D20792E1F77
:1012300000284AD0A07948B1012807D0022805D05B
:10124000032803D0752126A000F0A8FE206870B303
:10125000617989B1012917D0022918D00127A27913
:101260002AB32D480830011F012A18D0022A1FD0A6
:10127000032A21D0012730E02968814329602068B2
:10128000316801433160EAE73168814301E0316848
:10129000014331602068296801432960DFE7226843
:1012A00003689343036020680A6802430A6014E0FD
:1012B00022680B68934302E022680B6813430B60BB
:1012C000216802680A43026007E0206831688143B0
:1012D000316020682968814329603846BDE8F08183
:1012E0002E2E2F447269766572732F53544D33320C
:1012F000463178785F48414C5F4472697665722F59
:101300005372632F73746D3332663178785F6C6C0F
:101310005F657874692E630004040140034909681D
:10132000884301D000207047012070471404014019
:101330000A06930D064A1A44936823EA1143090CDE
:1013400091FAA1F1B1FA81F18840034393607047AB
:10135000000001402DE9F047054662480C468542F1
:101360000FD0614885420CD06048854209D0604862
:10137000854206D05F48854203D0A3215EA000F0DD
:101380000DFE206830F07B4102D010F07B4F03D07F
:10139000A42159A000F002FE2068C0F30F2797FA9D
:1013A000A7F0B0FA80F697E00120B04038427DD037
:1013B000082E03D240F20110B04006E0A6F108006A
:1013C0004FF00111814041F080608146606858B162
:1013D000042809D0082807D0012805D0092803D0FF
:1013E000BD2145A000F0DAFD206928B1012803D015
:1013F000BE2141A000F0D2FD2169EA684FEA192020
:1014000090FAA0F0B0FA80F022EA192281400A4353
:10141000EA60484699FAA9FC05EB1061BCFA8CFC1D
:101420004FEA8C084FF00F0C0CFA08FC99FAA9F05F
:1014300062680B68B0FA80F0800023EA0C038240F7
:1014400013430B6060688A46012801D0092842D105
:10145000A068022807D0012805D0032803D0C9219D
:1014600025A000F09BFDE06828B1042803D0CA2124
:1014700021A000F093FD99FAA9FCBCFA8CFC4FEA7C
:101480008C084FF0030C0CFA08FCDAF8000099FA0B
:10149000A9F2A368B2FA82F220EA0C00920093400B
:1014A0001843CAF8000099FAA9FC00E013E0BCFA5E
:1014B0008CFC4FEA8C084FF0040C0CFA08FC99FAEB
:1014C000A9F1B1FA81F1E368890020EA0C008B40B0
:1014D0001843CAF80000761C37FA06F07FF464AFB0
:1014E000BDE8F08700080140000C014000100140F9
:1014F00000140140001801402E2E2F4472697665B9
:1015000072732F53544D3332463178785F48414CD3
:101510005F4472697665722F5372632F73746D33F3
:1015200032663178785F6C6C5F6770696F2E63002C
:1015300030B591FAA1F400EB1160B4FA84F4A5007F
:101540000F24AC4091FAA1F10368B1FA81F189004E
:10155000A3438A401343036030BDC36823EA1123C9
:10156000090A91FAA1F1B1FA81F18A401343C360EB
:10157000704700B5034600F06FFB186000F042FBB7
:10158000586000F04DFB9860586800F057FBD86039
:1015900000BD000001490860704700002C000020D9
:1015A0002DE9FF47664F0126DFF89881DFF8989113
:1015B0000D460446B84207D0444505D04C4503D0FB
:1015C000D12162A000F0EAFC6F482968814203D96A
:1015D000D2215EA000F0E2FC68684FF4805A28B186
:1015E000504503D0D32159A000F0D8FCA86850453D
:1015F0000AD048B1B0F5405F06D0B0F5005F03D027
:10160000D42152A000F0CAFCE86848B1B0F5806F60
:1016100006D0B0F5C06F03D0D5214CA000F0BEFCC1
:10162000286948B1042807D0082805D00C2803D021
:10163000D62146A000F0B2FC686960B1B0F5807FA9
:1016400009D0B0F5007F06D0B0F5407F03D0D72198
:101650003EA000F0A3FCE068C0F3403000286BD14E
:10166000E9686868E2680843296941F20C639A43B3
:1016700011430843E060A868216921F44051014307
:1016800021616869616921F44071014361616846C3
:10169000FFF76FFFBC4201D1039804E0444501D03D
:1016A0004C4549D10298002846D02968002943D0EA
:1016B00000EBC00202EB00128800B2FBF0F36421E1
:1016C000B3FBF1F36FF018077B43B2FBF0F5B2FB0D
:1016D000F0F705EB8305322303EB0515B5FBF1F5B8
:1016E000B7FBF1F705F0F00505EB0715B2FBF0F7D6
:1016F000B2FBF0F0B0FBF1F000266FF0180250439F
:1017000007EB800003EB0010B0FBF1F000F00F00DE
:10171000284480B2A060A068102804D240F2391199
:101720000AA000F03BFCA068B0F5803F04D34FF462
:101730009E7106A000F032FC04B03046BDE8F08790
:101740000038014000440040004800402E2E2F4445
:101750007269766572732F53544D333246317878FF
:101760005F48414C5F4472697665722F5372632FF4
:1017700073746D3332663178785F6C6C5F7573614A
:1017800072742E630000000020AA440038B51C4883
:10179000416941F0010141614069002200F001000E
:1017A000009011460C20FFF703F90C20FFF7CEF84C
:1017B000002211460D20FFF7FBF80D20FFF7C6F8B9
:1017C000104C20680022C0F30220114600F0FFF9FF
:1017D00001460E2000F0B3FB0E2000F093FB2068C2
:1017E0000022C0F30220114600F0F1F901460F205B
:1017F00000F0A5FBBDE838400F2000F083BB0000DF
:10180000001002400CED00E010B504490448FEF75A
:10181000DDFC0249491E087010BD000019000020BF
:10182000040000202DE9F04F87B000250595142114
:1018300068460695FEF77FFC1020FFF76BFC202022
:10184000FFF768FC0420FFF765FC0820FFF762FC47
:101850005C4FFF207861DFF87091411DC9F81410CA
:10186000DFF868B14FF0040840F2044ACBF8148066
:1018700057484FF47071416156490220FFF758FDF7
:1018800054490120891EFFF753FD012478148DF877
:10189000184005908DF819508DF81A4005A8FFF7EB
:1018A000A7FC20208DF8184005908DF819508DF870
:1018B0001A4005A8FFF79CFC474E012231463846E6
:1018C000FFF74BFE012242F220014148FFF745FE9F
:1018D000082231463846FFF72BFE082242F220014B
:1018E0003B48FFF725FE4FF6FF7002268DE85101B9
:1018F000694638460494FFF72DFD3848CDE90005C8
:1019000069464846FFF726FDCDF800A0CDE901461F
:10191000CDE9035469464846FFF71CFD3048CDE940
:10192000000569462A48FFF715FD2E48CDE9000558
:1019300069463846FFF70EFD2B4F00970395CDE91A
:10194000014669464846FFF705FDCDF800A0CDE900
:101950000146CDE9035469465846FFF7FBFC23488E
:1019600069468DE85100CDE903541948FFF7F2FCB0
:10197000CDE90265CDE90074694615480495FFF785
:10198000E9FC1B4C20680022C0F30220114600F045
:1019900005F90146172000F0C2FA172000F0A5FA59
:1019A00020680022C0F30220114600F0F7F801463B
:1019B000282000F0B4FA282000F097FA07B0BDE81C
:1019C000F08F0000001001400008014000140140A9
:1019D000000C01400300F000200020049B1B980431
:1019E000FF1FFC041F001F0401000104C2C0020409
:1019F0000CED00E0104810B50E4901604FF4827103
:101A00004160002102228160C0E90312012242618B
:101A1000520282610822C0E90721416281620A21E3
:101A2000C162FFF7C7F8002803D0BDE81040FEF7F9
:101A3000CBBB10BD003001403000002030B58DB070
:101A40001C216846FEF777FB142107A8FEF773FBFD
:101A50004FF48040FFF76AFB0420FFF767FB47481D
:101A600007900920089003200024CDE90904444D83
:101A700007A92846FFF76EFC42480790042008900B
:101A800007A92846FFF766FC3F4D0022052128469E
:101A9000FFF764FB002205212846FFF753FB0022D5
:101AA00005212846FFF780FB002205212846FFF785
:101AB00087FB802205212846FFF75EFB00220521D7
:101AC0002846FFF789FB002205212846FFF760FB27
:101AD000102204212846FFF741FB0022042128465A
:101AE000FFF730FB002204212846FFF75DFB0022B0
:101AF00004212846FFF764FB802204212846FFF7D3
:101B00003BFB002204212846FFF766FB002204214C
:101B10002846FFF73DFB1D480068C0F30220011D69
:101B2000072901D2002000E0C01E04FA00F10801DC
:101B3000174981F80004164920202139C1F8000115
:101B40004FF4E130CDE900040C200294CDE90340CC
:101B5000059406940F4C69462046FFF721FD206945
:101B600020F490402061606920F02A006061E06804
:101B700040F40050E0600DB030BD000002000204EF
:101B80000008014004000404000002400CED00E0E5
:101B900025E000E000380140FEE7FEE730B500F048
:101BA0000703C3F10704042C00D90424181D0728D7
:101BB00001D2002300E0DB1E012505FA04F0401EDF
:101BC000084098409D406D1E1540284330BD30B5FB
:101BD00000F00703C3F10704042C00D90424181DE6
:101BE000072801D2002300E0DB1E012505FA04F0DE
:101BF000401E084098409D406D1E1540284330BD52
:101C00007047000004494968044A01F0F0010909DD
:101C1000515CC8407047000000100240FB1F0008E4
:101C200004494968044A01F4E06102EB1121097892
:101C3000C8407047001002400B2000080449496862
:101C4000044A01F4605102EBD1210978C840704781
:101C5000001002400B2000080648406810F00C01FC
:101C6000054805D0042903D0082901D100F006B8A1
:101C7000704700000010024000127A000B484168D3
:101C800011F480320A4909D0B2F5803F06D141688B
:101C9000084AC1F34041491CB2FBF1F140680222FD
:101CA00000F4701002EB904048437047001002406F
:101CB00000093D0000127A000148FEF70BBF00004A
:101CC0003000002010B5406A0021C187C186FEF7B0
:101CD000FFFE10BD38B50B4600920446002280215D
:101CE00000F008F8002804D0606D40F02000606526
:101CF000032038BD2DE9F8431E4691468846044628
:101D0000089DFEF7C5FD401B351AFEF7C1FD0746CD
:101D100025480068C0F3CB30684338E0701C37D0EA
:101D2000FEF7B6FDC01BA84203D215B1009860B300
:101D30002CE02068416821F0E00141606068B0F566
:101D4000827F0BD1A068B0F5004F02D0B0F5806F54
:101D500004D12068016821F040010160A06AB0F55B
:101D6000005F09D12068016821F4005101602068FA
:101D7000016841F400510160012084F85100002005
:101D800084F850000320BDE8F8830025401E009031
:101D90002068816838EA010004D000214945BDD19E
:101DA0000020F0E70121F9E72C0000207047000037
:101DB000044A042118B1012800D151617047116112
:101DC000704700000008014001B582B0002001907A
:101DD00064200090042301AA02A90248FFF770F8CA
:101DE00001980EBD3000002001B582B00020ADF892
:101DF000040064200090022301AA02A90248FFF710
:101E00005FF8BDF804000EBD30000020FEF746BDAF
:101E1000264810B5016821F0070141F00201016078
:101E2000016801F007010229FAD12148016841F453
:101E3000803101600168C1F340410029FAD0016896
:101E400041F400210160416821F47C1141F4E81162
:101E50004160016841F0807101600168C1F3406137
:101E60000029FAD0416821F0F0014160416821F475
:101E7000E06141F480614160416821F4605141605A
:101E8000416821F0030141F002014160416801F025
:101E90000C010829FAD10748FFF77CFB0020FEF768
:101EA00017FD002801D072B6FEE710BD00200240E9
:101EB0000010024000A24A04704770470248012106
:101EC000017000787047000000000020012070477A
:101ED000002070470248012101700078704700001F
:101EE0000000002000207047FEE7002809DB00F01A
:101EF0001F02012191404009800000F1E020C0F85C
:101F000000117047002809DB00F01F0201219140F9
:101F10004009800000F1E020C0F800117047090777
:101F2000090E002804DB00F1E02080F8001470475F
:101F300000F00F0000F1E02080F8141D7047090741
:101F4000090E002804DB00F1E02080F8001470473F
:101F500000F00F0000F1E02080F8141D7047090721
:101F6000090E002804DB00F1E02080F8001470471F
:101F700000F00F0000F1E02080F8141D704702E02F
:101F800008C8121F08C1002AFAD170477047002004
:101F900001E001C1121F002AFBD170477047FEF714
:101FA00085FCFFF735FFFFF73DFCFFF7EFFBFFF781
:101FB00045FDFFF71FFDFFF727FC00F001F8FEE7E6
:101FC00070B54FF010444FF6FF750120FFF7F0FE9B
:101FD0002046FFF7F9FE2846FFF706FF04460020DB
:101FE000FFF7E6FEA4F56F41173901D0002070BD60
:101FF000012070BD081C3044586C800000000000B7
:1020000000000001020304060708090000000001A7
:10201000020304003420000800000020300000000B
:102020007E1F00086420000830000020F00400003B
:102030008E1F000801000000BD1E0008D51E00080C
:10204000D11E0008E51E0008CD1E0008000000009B
:10205000000000000100000010000000000000006F
:042060000024F40064
:04000005080000ED02
:00000001FF
